{
  "transactions": [
    {
      "hash": "0xca2ac866391599550dd4a305fc43e66711f37cc48f45d4fc8e13c6e22a0af3f3",
      "transactionType": "CREATE",
      "contractName": "USDX",
      "contractAddress": "0x0ABFA9C0318f0b7a9AE8804389729cB70b8ef6C5",
      "function": null,
      "arguments": null,
      "rpc": "https://rpc-mumbai.maticvigil.com",
      "transaction": {
        "type": "0x00",
        "from": "0x8478f8c1d693ab4c054d3bbc0abff4178b8f1b0b",
        "gas": "0xe6b5e",
        "value": "0x0",
        "data": "0x60c060405260046080908152630aaa688b60e31b60a0526000906100239082610125565b506040805180820190915260048152630aaa688b60e31b602082015260019061004c9082610125565b50629896806002556003805460ff1916601217905534801561006d57600080fd5b50600254336000908152600460205260409020556101e4565b634e487b7160e01b600052604160045260246000fd5b600181811c908216806100b057607f821691505b6020821081036100d057634e487b7160e01b600052602260045260246000fd5b50919050565b601f82111561012057600081815260208120601f850160051c810160208610156100fd5750805b601f850160051c820191505b8181101561011c57828155600101610109565b5050505b505050565b81516001600160401b0381111561013e5761013e610086565b6101528161014c845461009c565b846100d6565b602080601f831160018114610187576000841561016f5750858301515b600019600386901b1c1916600185901b17855561011c565b600085815260208120601f198616915b828110156101b657888601518255948401946001909101908401610197565b50858210156101d45787850151600019600388901b60f8161c191681555b5050505050600190811b01905550565b610a0a80620001f46000396000f3fe608060405234801561001057600080fd5b506004361061009e5760003560e01c806342966c681161006657806342966c681461012f57806370a082311461014257806395d89b411461016b578063a9059cbb14610173578063e1f21c671461018657600080fd5b806306fdde03146100a357806318160ddd146100c157806323b872dd146100d8578063313ce567146100fb57806340c10f191461011a575b600080fd5b6100ab610199565b6040516100b89190610833565b60405180910390f35b6100ca60025481565b6040519081526020016100b8565b6100eb6100e636600461089d565b610227565b60405190151581526020016100b8565b6003546101089060ff1681565b60405160ff90911681526020016100b8565b61012d6101283660046108d9565b610463565b005b61012d61013d366004610903565b610532565b6100ca61015036600461091c565b6001600160a01b031660009081526004602052604090205490565b6100ab610634565b6100eb6101813660046108d9565b610641565b6100eb61019436600461089d565b610775565b600080546101a69061093e565b80601f01602080910402602001604051908101604052809291908181526020018280546101d29061093e565b801561021f5780601f106101f45761010080835404028352916020019161021f565b820191906000526020600020905b81548152906001019060200180831161020257829003601f168201915b505050505081565b60006001600160a01b0383166102845760405162461bcd60e51b815260206004820152601f60248201527f45524332303a207472616e7366657220746f207a65726f20616464726573730060448201526064015b60405180910390fd5b6001600160a01b038416600090815260046020526040902054828110156102ed5760405162461bcd60e51b815260206004820152601b60248201527f45524332303a20696e73756666696369656e742062616c616e63650000000000604482015260640161027b565b6001600160a01b0385166000908152600560209081526040808320338452909152902054838110156103615760405162461bcd60e51b815260206004820152601d60248201527f45524332303a20696e73756666696369656e7420616c6c6f77616e6365000000604482015260640161027b565b61036b848361098e565b6001600160a01b0380881660009081526004602052604080822093909355908716815290812080548692906103a19084906109a1565b909155506103b19050848261098e565b6001600160a01b03878116600081815260056020908152604080832033845282529182902094909455518781529188169290916000805160206109b5833981519152910160405180910390a36001600160a01b038616600081815260056020908152604080832033808552908352928190205490519081529192917f8c5be1e5ebec7d5bd14f71427d1e84f3dd0314c0f7b2291e5b200ac8c7c3b925910160405180910390a350600195945050505050565b336001600160a01b038316146104bb5760405162461bcd60e51b815260206004820152601c60248201527f45524332303a2063616e206f6e6c79206d696e7420746f2073656c6600000000604482015260640161027b565b80600260008282546104cd91906109a1565b90915550506001600160a01b038216600090815260046020526040812080548392906104fa9084906109a1565b90915550506040518181526001600160a01b038316906000906000805160206109b58339815191529060200160405180910390a35050565b336000908152600460205260409020548181101561059e5760405162461bcd60e51b8152602060048201526024808201527f45524332303a20696e73756666696369656e742062616c616e636520666f7220604482015263313ab93760e11b606482015260840161027b565b81600260008282546105b0919061098e565b909155506105c09050828261098e565b336000818152600460205260408082209390935591516000805160206109b5833981519152906105f39086815260200190565b60405180910390a360405182815233907fcc16f5dbb4873280815c1ee09dbd06736cffcc184412cf7a71a0fdb75d397ca59060200160405180910390a25050565b600180546101a69061093e565b60006001600160a01b0383166106995760405162461bcd60e51b815260206004820152601f60248201527f45524332303a207472616e7366657220746f207a65726f206164647265737300604482015260640161027b565b33600090815260046020526040902054828110156106f95760405162461bcd60e51b815260206004820152601b60248201527f45524332303a20696e73756666696369656e742062616c616e63650000000000604482015260640161027b565b610703838261098e565b33600090815260046020526040808220929092556001600160a01b038616815290812080548592906107369084906109a1565b90915550506040518381526001600160a01b0385169033906000805160206109b58339815191529060200160405180910390a360019150505b92915050565b60006001600160a01b0383166107cd5760405162461bcd60e51b815260206004820152601e60248201527f45524332303a20617070726f766520746f207a65726f20616464726573730000604482015260640161027b565b6001600160a01b0384811660008181526005602090815260408083209488168084529482529182902086905590518581527f8c5be1e5ebec7d5bd14f71427d1e84f3dd0314c0f7b2291e5b200ac8c7c3b925910160405180910390a35060019392505050565b600060208083528351808285015260005b8181101561086057858101830151858201604001528201610844565b506000604082860101526040601f19601f8301168501019250505092915050565b80356001600160a01b038116811461089857600080fd5b919050565b6000806000606084860312156108b257600080fd5b6108bb84610881565b92506108c960208501610881565b9150604084013590509250925092565b600080604083850312156108ec57600080fd5b6108f583610881565b946020939093013593505050565b60006020828403121561091557600080fd5b5035919050565b60006020828403121561092e57600080fd5b61093782610881565b9392505050565b600181811c9082168061095257607f821691505b60208210810361097257634e487b7160e01b600052602260045260246000fd5b50919050565b634e487b7160e01b600052601160045260246000fd5b8181038181111561076f5761076f610978565b8082018082111561076f5761076f61097856feddf252ad1be2c89b69c2b068fc378daa952ba7f163c4a11628f55a4df523b3efa2646970667358221220a2d140f5bd9d03f66a7dc9c504ab57f2ad8b21b6604531803a1e3d8a08d306f964736f6c63430008110033",
        "nonce": "0x117"
      },
      "additionalContracts": [],
      "isFixedGasLimit": false
    },
    {
      "hash": "0x9e67eb36480cda4133f22c46182072aa2576fdd504b28c104865887a985b191d",
      "transactionType": "CALL",
      "contractName": "USDX",
      "contractAddress": "0x0ABFA9C0318f0b7a9AE8804389729cB70b8ef6C5",
      "function": "mint(address,uint256)",
      "arguments": [
        "0x8478F8c1d693aB4C054d3BBC0aBff4178b8F1b0B",
        "100000000000000000000"
      ],
      "rpc": "https://rpc-mumbai.maticvigil.com",
      "transaction": {
        "type": "0x00",
        "from": "0x8478f8c1d693ab4c054d3bbc0abff4178b8f1b0b",
        "to": "0x0abfa9c0318f0b7a9ae8804389729cb70b8ef6c5",
        "gas": "0xb8d9",
        "value": "0x0",
        "data": "0x40c10f190000000000000000000000008478f8c1d693ab4c054d3bbc0abff4178b8f1b0b0000000000000000000000000000000000000000000000056bc75e2d63100000",
        "nonce": "0x118"
      },
      "additionalContracts": [],
      "isFixedGasLimit": false
    }
  ],
  "receipts": [
    {
      "transactionHash": "0xca2ac866391599550dd4a305fc43e66711f37cc48f45d4fc8e13c6e22a0af3f3",
      "transactionIndex": "0x8",
      "blockHash": "0xe5c543d95c52e754fb4575cc09219f0ca14236d90384cbbfc69dc691a65bcb2b",
      "blockNumber": "0x27bacbb",
      "from": "0x8478F8c1d693aB4C054d3BBC0aBff4178b8F1b0B",
      "to": null,
      "cumulativeGasUsed": "0xdc642",
      "gasUsed": "0xb1784",
      "contractAddress": "0x0ABFA9C0318f0b7a9AE8804389729cB70b8ef6C5",
      "logs": [
        {
          "address": "0x0000000000000000000000000000000000001010",
          "topics": [
            "0x4dfe1bbbcf077ddc3e01291eea2d5c70c2b422b415d95645b9adcfd678cb1d63",
            "0x0000000000000000000000000000000000000000000000000000000000001010",
            "0x0000000000000000000000008478f8c1d693ab4c054d3bbc0abff4178b8f1b0b",
            "0x0000000000000000000000005082f249cdb2f2c1ee035e4f423c46ea2dab3ab1"
          ],
          "data": "0x00000000000000000000000000000000000000000000000000055d50408fe05400000000000000000000000000000000000000000000000003033b0196d49ea500000000000000000000000000000000000000000000031dbb4f4e16306af00f00000000000000000000000000000000000000000000000002fdddb15644be5100000000000000000000000000000000000000000000031dbb54ab6670fad063",
          "blockHash": "0xe5c543d95c52e754fb4575cc09219f0ca14236d90384cbbfc69dc691a65bcb2b",
          "blockNumber": "0x27bacbb",
          "transactionHash": "0xca2ac866391599550dd4a305fc43e66711f37cc48f45d4fc8e13c6e22a0af3f3",
          "transactionIndex": "0x8",
          "logIndex": "0x10",
          "removed": false
        }
      ],
      "status": "0x1",
      "logsBloom": "0x00000000000000000000000000000000000000000000000000000000020000000000000002000000000000000000000000008000000000000000000000000000000000000000000000000000000000800000000000000000000100000000000000000000000000000000000000000000000000000000000080000000100000000000000000000000000000000000000000100200000000000000000000000000200000000000000000000000000000000000000000000000000000000000004000000000000000000001000000000000000000000000000000100000000000000000000000000080000000000000000000000000000000000000000000100000",
      "type": "0x0",
      "effectiveGasPrice": "0x7bd010c5"
    },
    {
      "transactionHash": "0x9e67eb36480cda4133f22c46182072aa2576fdd504b28c104865887a985b191d",
      "transactionIndex": "0xa",
      "blockHash": "0xe5c543d95c52e754fb4575cc09219f0ca14236d90384cbbfc69dc691a65bcb2b",
      "blockNumber": "0x27bacbb",
      "from": "0x8478F8c1d693aB4C054d3BBC0aBff4178b8F1b0B",
      "to": "0x0ABFA9C0318f0b7a9AE8804389729cB70b8ef6C5",
      "cumulativeGasUsed": "0x102ae7",
      "gasUsed": "0x85d4",
      "contractAddress": null,
      "logs": [
        {
          "address": "0x0ABFA9C0318f0b7a9AE8804389729cB70b8ef6C5",
          "topics": [
            "0xddf252ad1be2c89b69c2b068fc378daa952ba7f163c4a11628f55a4df523b3ef",
            "0x0000000000000000000000000000000000000000000000000000000000000000",
            "0x0000000000000000000000008478f8c1d693ab4c054d3bbc0abff4178b8f1b0b"
          ],
          "data": "0x0000000000000000000000000000000000000000000000056bc75e2d63100000",
          "blockHash": "0xe5c543d95c52e754fb4575cc09219f0ca14236d90384cbbfc69dc691a65bcb2b",
          "blockNumber": "0x27bacbb",
          "transactionHash": "0x9e67eb36480cda4133f22c46182072aa2576fdd504b28c104865887a985b191d",
          "transactionIndex": "0xa",
          "logIndex": "0x15",
          "removed": false
        },
        {
          "address": "0x0000000000000000000000000000000000001010",
          "topics": [
            "0x4dfe1bbbcf077ddc3e01291eea2d5c70c2b422b415d95645b9adcfd678cb1d63",
            "0x0000000000000000000000000000000000000000000000000000000000001010",
            "0x0000000000000000000000008478f8c1d693ab4c054d3bbc0abff4178b8f1b0b",
            "0x0000000000000000000000005082f249cdb2f2c1ee035e4f423c46ea2dab3ab1"
          ],
          "data": "0x000000000000000000000000000000000000000000000000000040b9a0fbdee400000000000000000000000000000000000000000000000002fdddb15593461100000000000000000000000000000000000000000000031dbb5592fa050a6a2800000000000000000000000000000000000000000000000002fd9cf7b497672d00000000000000000000000000000000000000000000031dbb55d3b3a606490c",
          "blockHash": "0xe5c543d95c52e754fb4575cc09219f0ca14236d90384cbbfc69dc691a65bcb2b",
          "blockNumber": "0x27bacbb",
          "transactionHash": "0x9e67eb36480cda4133f22c46182072aa2576fdd504b28c104865887a985b191d",
          "transactionIndex": "0xa",
          "logIndex": "0x16",
          "removed": false
        }
      ],
      "status": "0x1",
      "logsBloom": "0x00000000000000000000000000000000000000000000000000000000020000000000000002000000000000000000000000008000000000000000000000000000000000000000000000000008002000800000000000000000000100000000000000000000020000000000800000000800000000000000000080000010100000000000000000000000000000000000000000100200000000000000000000000000200000000000000000000000000000000000000000000000000000000000004000000002000000000001000000000000000000000000000000100000000020000000000000000080000000000000000000000000000000000000000000100000",
      "type": "0x0",
      "effectiveGasPrice": "0x7bd010c5"
    }
  ],
  "libraries": [],
  "pending": [],
  "path": "C:/Users/frawl/OneDrive/Desktop/code/nftTradingCards/broadcast\\USDX.s.sol\\80001\\run-latest.json",
  "returns": {},
  "timestamp": 1698308686,
  "chain": 80001,
  "multi": false,
  "commit": "387033b"
}